{
  "_format": "hh-sol-artifact-1",
  "contractName": "ScholarshipContract",
  "sourceName": "contracts/ScholarshipContract.sol",
  "abi": [
    {
      "inputs": [],
      "stateMutability": "nonpayable",
      "type": "constructor"
    },
    {
      "anonymous": false,
      "inputs": [
        {
          "indexed": true,
          "internalType": "uint256",
          "name": "applicationId",
          "type": "uint256"
        },
        {
          "indexed": true,
          "internalType": "address",
          "name": "admin",
          "type": "address"
        }
      ],
      "name": "AdminApproved",
      "type": "event"
    },
    {
      "anonymous": false,
      "inputs": [
        {
          "indexed": true,
          "internalType": "uint256",
          "name": "applicationId",
          "type": "uint256"
        },
        {
          "indexed": true,
          "internalType": "address",
          "name": "student",
          "type": "address"
        }
      ],
      "name": "ApplicationSubmitted",
      "type": "event"
    },
    {
      "anonymous": false,
      "inputs": [
        {
          "indexed": true,
          "internalType": "address",
          "name": "depositor",
          "type": "address"
        },
        {
          "indexed": false,
          "internalType": "uint256",
          "name": "amount",
          "type": "uint256"
        }
      ],
      "name": "FundsDeposited",
      "type": "event"
    },
    {
      "anonymous": false,
      "inputs": [
        {
          "indexed": true,
          "internalType": "uint256",
          "name": "applicationId",
          "type": "uint256"
        },
        {
          "indexed": true,
          "internalType": "address",
          "name": "student",
          "type": "address"
        },
        {
          "indexed": false,
          "internalType": "uint256",
          "name": "amount",
          "type": "uint256"
        }
      ],
      "name": "FundsDisbursed",
      "type": "event"
    },
    {
      "anonymous": false,
      "inputs": [
        {
          "indexed": true,
          "internalType": "uint256",
          "name": "applicationId",
          "type": "uint256"
        },
        {
          "indexed": true,
          "internalType": "address",
          "name": "sagMember",
          "type": "address"
        }
      ],
      "name": "SAGVerified",
      "type": "event"
    },
    {
      "anonymous": false,
      "inputs": [
        {
          "indexed": false,
          "internalType": "uint256",
          "name": "newAmount",
          "type": "uint256"
        }
      ],
      "name": "ScholarshipAmountUpdated",
      "type": "event"
    },
    {
      "anonymous": false,
      "inputs": [
        {
          "indexed": true,
          "internalType": "address",
          "name": "user",
          "type": "address"
        },
        {
          "indexed": false,
          "internalType": "enum ScholarshipContract.Role",
          "name": "role",
          "type": "uint8"
        }
      ],
      "name": "UserRoleAssigned",
      "type": "event"
    },
    {
      "inputs": [
        {
          "internalType": "uint256",
          "name": "_applicationId",
          "type": "uint256"
        }
      ],
      "name": "adminApprove",
      "outputs": [],
      "stateMutability": "nonpayable",
      "type": "function"
    },
    {
      "inputs": [
        {
          "internalType": "uint256",
          "name": "",
          "type": "uint256"
        }
      ],
      "name": "adminMembers",
      "outputs": [
        {
          "internalType": "address",
          "name": "",
          "type": "address"
        }
      ],
      "stateMutability": "view",
      "type": "function"
    },
    {
      "inputs": [
        {
          "internalType": "uint256",
          "name": "",
          "type": "uint256"
        },
        {
          "internalType": "address",
          "name": "",
          "type": "address"
        }
      ],
      "name": "adminVotes",
      "outputs": [
        {
          "internalType": "bool",
          "name": "",
          "type": "bool"
        }
      ],
      "stateMutability": "view",
      "type": "function"
    },
    {
      "inputs": [],
      "name": "applicationCounter",
      "outputs": [
        {
          "internalType": "uint256",
          "name": "",
          "type": "uint256"
        }
      ],
      "stateMutability": "view",
      "type": "function"
    },
    {
      "inputs": [
        {
          "internalType": "uint256",
          "name": "",
          "type": "uint256"
        }
      ],
      "name": "applications",
      "outputs": [
        {
          "internalType": "uint256",
          "name": "id",
          "type": "uint256"
        },
        {
          "internalType": "address",
          "name": "student",
          "type": "address"
        },
        {
          "internalType": "string",
          "name": "name",
          "type": "string"
        },
        {
          "internalType": "string",
          "name": "email",
          "type": "string"
        },
        {
          "internalType": "string",
          "name": "phone",
          "type": "string"
        },
        {
          "internalType": "string",
          "name": "aadharNumber",
          "type": "string"
        },
        {
          "internalType": "string",
          "name": "income",
          "type": "string"
        },
        {
          "internalType": "string",
          "name": "documentsIPFSHash",
          "type": "string"
        },
        {
          "internalType": "enum ScholarshipContract.ApplicationStatus",
          "name": "status",
          "type": "uint8"
        },
        {
          "internalType": "uint256",
          "name": "sagVerifiedCount",
          "type": "uint256"
        },
        {
          "internalType": "uint256",
          "name": "adminApprovedCount",
          "type": "uint256"
        },
        {
          "internalType": "uint256",
          "name": "appliedAt",
          "type": "uint256"
        },
        {
          "internalType": "uint256",
          "name": "disbursementAmount",
          "type": "uint256"
        },
        {
          "internalType": "bool",
          "name": "isDisbursed",
          "type": "bool"
        }
      ],
      "stateMutability": "view",
      "type": "function"
    },
    {
      "inputs": [
        {
          "internalType": "address",
          "name": "_user",
          "type": "address"
        },
        {
          "internalType": "enum ScholarshipContract.Role",
          "name": "_role",
          "type": "uint8"
        }
      ],
      "name": "assignRole",
      "outputs": [],
      "stateMutability": "nonpayable",
      "type": "function"
    },
    {
      "inputs": [],
      "name": "depositFunds",
      "outputs": [],
      "stateMutability": "payable",
      "type": "function"
    },
    {
      "inputs": [
        {
          "internalType": "uint256",
          "name": "_applicationId",
          "type": "uint256"
        },
        {
          "internalType": "uint256",
          "name": "_customAmount",
          "type": "uint256"
        }
      ],
      "name": "disburseFunds",
      "outputs": [],
      "stateMutability": "nonpayable",
      "type": "function"
    },
    {
      "inputs": [
        {
          "internalType": "uint256",
          "name": "",
          "type": "uint256"
        }
      ],
      "name": "financeBureauMembers",
      "outputs": [
        {
          "internalType": "address",
          "name": "",
          "type": "address"
        }
      ],
      "stateMutability": "view",
      "type": "function"
    },
    {
      "inputs": [],
      "name": "getAdminMembers",
      "outputs": [
        {
          "internalType": "address[]",
          "name": "",
          "type": "address[]"
        }
      ],
      "stateMutability": "view",
      "type": "function"
    },
    {
      "inputs": [],
      "name": "getAllApplications",
      "outputs": [
        {
          "components": [
            {
              "internalType": "uint256",
              "name": "id",
              "type": "uint256"
            },
            {
              "internalType": "address",
              "name": "student",
              "type": "address"
            },
            {
              "internalType": "string",
              "name": "name",
              "type": "string"
            },
            {
              "internalType": "string",
              "name": "email",
              "type": "string"
            },
            {
              "internalType": "string",
              "name": "phone",
              "type": "string"
            },
            {
              "internalType": "string",
              "name": "aadharNumber",
              "type": "string"
            },
            {
              "internalType": "string",
              "name": "income",
              "type": "string"
            },
            {
              "internalType": "string",
              "name": "documentsIPFSHash",
              "type": "string"
            },
            {
              "internalType": "enum ScholarshipContract.ApplicationStatus",
              "name": "status",
              "type": "uint8"
            },
            {
              "internalType": "uint256",
              "name": "sagVerifiedCount",
              "type": "uint256"
            },
            {
              "internalType": "uint256",
              "name": "adminApprovedCount",
              "type": "uint256"
            },
            {
              "internalType": "uint256",
              "name": "appliedAt",
              "type": "uint256"
            },
            {
              "internalType": "uint256",
              "name": "disbursementAmount",
              "type": "uint256"
            },
            {
              "internalType": "bool",
              "name": "isDisbursed",
              "type": "bool"
            }
          ],
          "internalType": "struct ScholarshipContract.Application[]",
          "name": "",
          "type": "tuple[]"
        }
      ],
      "stateMutability": "view",
      "type": "function"
    },
    {
      "inputs": [
        {
          "internalType": "uint256",
          "name": "_applicationId",
          "type": "uint256"
        }
      ],
      "name": "getApplication",
      "outputs": [
        {
          "components": [
            {
              "internalType": "uint256",
              "name": "id",
              "type": "uint256"
            },
            {
              "internalType": "address",
              "name": "student",
              "type": "address"
            },
            {
              "internalType": "string",
              "name": "name",
              "type": "string"
            },
            {
              "internalType": "string",
              "name": "email",
              "type": "string"
            },
            {
              "internalType": "string",
              "name": "phone",
              "type": "string"
            },
            {
              "internalType": "string",
              "name": "aadharNumber",
              "type": "string"
            },
            {
              "internalType": "string",
              "name": "income",
              "type": "string"
            },
            {
              "internalType": "string",
              "name": "documentsIPFSHash",
              "type": "string"
            },
            {
              "internalType": "enum ScholarshipContract.ApplicationStatus",
              "name": "status",
              "type": "uint8"
            },
            {
              "internalType": "uint256",
              "name": "sagVerifiedCount",
              "type": "uint256"
            },
            {
              "internalType": "uint256",
              "name": "adminApprovedCount",
              "type": "uint256"
            },
            {
              "internalType": "uint256",
              "name": "appliedAt",
              "type": "uint256"
            },
            {
              "internalType": "uint256",
              "name": "disbursementAmount",
              "type": "uint256"
            },
            {
              "internalType": "bool",
              "name": "isDisbursed",
              "type": "bool"
            }
          ],
          "internalType": "struct ScholarshipContract.Application",
          "name": "",
          "type": "tuple"
        }
      ],
      "stateMutability": "view",
      "type": "function"
    },
    {
      "inputs": [
        {
          "internalType": "enum ScholarshipContract.ApplicationStatus",
          "name": "_status",
          "type": "uint8"
        }
      ],
      "name": "getApplicationsByStatus",
      "outputs": [
        {
          "components": [
            {
              "internalType": "uint256",
              "name": "id",
              "type": "uint256"
            },
            {
              "internalType": "address",
              "name": "student",
              "type": "address"
            },
            {
              "internalType": "string",
              "name": "name",
              "type": "string"
            },
            {
              "internalType": "string",
              "name": "email",
              "type": "string"
            },
            {
              "internalType": "string",
              "name": "phone",
              "type": "string"
            },
            {
              "internalType": "string",
              "name": "aadharNumber",
              "type": "string"
            },
            {
              "internalType": "string",
              "name": "income",
              "type": "string"
            },
            {
              "internalType": "string",
              "name": "documentsIPFSHash",
              "type": "string"
            },
            {
              "internalType": "enum ScholarshipContract.ApplicationStatus",
              "name": "status",
              "type": "uint8"
            },
            {
              "internalType": "uint256",
              "name": "sagVerifiedCount",
              "type": "uint256"
            },
            {
              "internalType": "uint256",
              "name": "adminApprovedCount",
              "type": "uint256"
            },
            {
              "internalType": "uint256",
              "name": "appliedAt",
              "type": "uint256"
            },
            {
              "internalType": "uint256",
              "name": "disbursementAmount",
              "type": "uint256"
            },
            {
              "internalType": "bool",
              "name": "isDisbursed",
              "type": "bool"
            }
          ],
          "internalType": "struct ScholarshipContract.Application[]",
          "name": "",
          "type": "tuple[]"
        }
      ],
      "stateMutability": "view",
      "type": "function"
    },
    {
      "inputs": [],
      "name": "getContractBalance",
      "outputs": [
        {
          "internalType": "uint256",
          "name": "",
          "type": "uint256"
        }
      ],
      "stateMutability": "view",
      "type": "function"
    },
    {
      "inputs": [],
      "name": "getFinanceMembers",
      "outputs": [
        {
          "internalType": "address[]",
          "name": "",
          "type": "address[]"
        }
      ],
      "stateMutability": "view",
      "type": "function"
    },
    {
      "inputs": [],
      "name": "getMyApplications",
      "outputs": [
        {
          "components": [
            {
              "internalType": "uint256",
              "name": "id",
              "type": "uint256"
            },
            {
              "internalType": "address",
              "name": "student",
              "type": "address"
            },
            {
              "internalType": "string",
              "name": "name",
              "type": "string"
            },
            {
              "internalType": "string",
              "name": "email",
              "type": "string"
            },
            {
              "internalType": "string",
              "name": "phone",
              "type": "string"
            },
            {
              "internalType": "string",
              "name": "aadharNumber",
              "type": "string"
            },
            {
              "internalType": "string",
              "name": "income",
              "type": "string"
            },
            {
              "internalType": "string",
              "name": "documentsIPFSHash",
              "type": "string"
            },
            {
              "internalType": "enum ScholarshipContract.ApplicationStatus",
              "name": "status",
              "type": "uint8"
            },
            {
              "internalType": "uint256",
              "name": "sagVerifiedCount",
              "type": "uint256"
            },
            {
              "internalType": "uint256",
              "name": "adminApprovedCount",
              "type": "uint256"
            },
            {
              "internalType": "uint256",
              "name": "appliedAt",
              "type": "uint256"
            },
            {
              "internalType": "uint256",
              "name": "disbursementAmount",
              "type": "uint256"
            },
            {
              "internalType": "bool",
              "name": "isDisbursed",
              "type": "bool"
            }
          ],
          "internalType": "struct ScholarshipContract.Application[]",
          "name": "",
          "type": "tuple[]"
        }
      ],
      "stateMutability": "view",
      "type": "function"
    },
    {
      "inputs": [],
      "name": "getSAGMembers",
      "outputs": [
        {
          "internalType": "address[]",
          "name": "",
          "type": "address[]"
        }
      ],
      "stateMutability": "view",
      "type": "function"
    },
    {
      "inputs": [],
      "name": "getTreasuryBalance",
      "outputs": [
        {
          "internalType": "uint256",
          "name": "",
          "type": "uint256"
        }
      ],
      "stateMutability": "view",
      "type": "function"
    },
    {
      "inputs": [
        {
          "internalType": "address",
          "name": "_user",
          "type": "address"
        }
      ],
      "name": "getUserRole",
      "outputs": [
        {
          "internalType": "enum ScholarshipContract.Role",
          "name": "",
          "type": "uint8"
        },
        {
          "internalType": "bool",
          "name": "",
          "type": "bool"
        }
      ],
      "stateMutability": "view",
      "type": "function"
    },
    {
      "inputs": [],
      "name": "owner",
      "outputs": [
        {
          "internalType": "address",
          "name": "",
          "type": "address"
        }
      ],
      "stateMutability": "view",
      "type": "function"
    },
    {
      "inputs": [],
      "name": "registerAsStudent",
      "outputs": [],
      "stateMutability": "nonpayable",
      "type": "function"
    },
    {
      "inputs": [
        {
          "internalType": "uint256",
          "name": "",
          "type": "uint256"
        }
      ],
      "name": "sagBureauMembers",
      "outputs": [
        {
          "internalType": "address",
          "name": "",
          "type": "address"
        }
      ],
      "stateMutability": "view",
      "type": "function"
    },
    {
      "inputs": [
        {
          "internalType": "uint256",
          "name": "",
          "type": "uint256"
        },
        {
          "internalType": "address",
          "name": "",
          "type": "address"
        }
      ],
      "name": "sagVotes",
      "outputs": [
        {
          "internalType": "bool",
          "name": "",
          "type": "bool"
        }
      ],
      "stateMutability": "view",
      "type": "function"
    },
    {
      "inputs": [
        {
          "internalType": "uint256",
          "name": "_amount",
          "type": "uint256"
        }
      ],
      "name": "setScholarshipAmount",
      "outputs": [],
      "stateMutability": "nonpayable",
      "type": "function"
    },
    {
      "inputs": [],
      "name": "standardScholarshipAmount",
      "outputs": [
        {
          "internalType": "uint256",
          "name": "",
          "type": "uint256"
        }
      ],
      "stateMutability": "view",
      "type": "function"
    },
    {
      "inputs": [
        {
          "internalType": "string",
          "name": "_name",
          "type": "string"
        },
        {
          "internalType": "string",
          "name": "_email",
          "type": "string"
        },
        {
          "internalType": "string",
          "name": "_phone",
          "type": "string"
        },
        {
          "internalType": "string",
          "name": "_aadharNumber",
          "type": "string"
        },
        {
          "internalType": "string",
          "name": "_income",
          "type": "string"
        },
        {
          "internalType": "string",
          "name": "_documentsIPFSHash",
          "type": "string"
        }
      ],
      "name": "submitApplication",
      "outputs": [],
      "stateMutability": "nonpayable",
      "type": "function"
    },
    {
      "inputs": [],
      "name": "treasuryBalance",
      "outputs": [
        {
          "internalType": "uint256",
          "name": "",
          "type": "uint256"
        }
      ],
      "stateMutability": "view",
      "type": "function"
    },
    {
      "inputs": [
        {
          "internalType": "uint256",
          "name": "_applicationId",
          "type": "uint256"
        },
        {
          "internalType": "uint256",
          "name": "_newAmount",
          "type": "uint256"
        }
      ],
      "name": "updateDisbursementAmount",
      "outputs": [],
      "stateMutability": "nonpayable",
      "type": "function"
    },
    {
      "inputs": [
        {
          "internalType": "address",
          "name": "",
          "type": "address"
        }
      ],
      "name": "users",
      "outputs": [
        {
          "internalType": "enum ScholarshipContract.Role",
          "name": "role",
          "type": "uint8"
        },
        {
          "internalType": "bool",
          "name": "isActive",
          "type": "bool"
        }
      ],
      "stateMutability": "view",
      "type": "function"
    },
    {
      "inputs": [
        {
          "internalType": "uint256",
          "name": "_applicationId",
          "type": "uint256"
        }
      ],
      "name": "verifySAG",
      "outputs": [],
      "stateMutability": "nonpayable",
      "type": "function"
    },
    {
      "inputs": [
        {
          "internalType": "uint256",
          "name": "_amount",
          "type": "uint256"
        }
      ],
      "name": "withdrawExcessFunds",
      "outputs": [],
      "stateMutability": "nonpayable",
      "type": "function"
    },
    {
      "stateMutability": "payable",
      "type": "receive"
    }
  ],
  "bytecode": "0x60803461013d57662386f26fc10000600a55600080546001600160a01b03191633179055604081016001600160401b0381118282101761012757604052600281526020810190600182523360005260026020526040600020905160048110156101115760009260ff61ff0084549251151560081b1692169061ffff19161717905560085490680100000000000000008210156100fd5760018201806008558210156100e957600890527ff3f7a9fe364faab93b216da50a3214154f22a0a2b415b23a84c8169e8b636ee30180546001600160a01b0319163317905560405161274090816101438239f35b634e487b7160e01b81526032600452602490fd5b634e487b7160e01b81526041600452602490fd5b634e487b7160e01b600052602160045260246000fd5b634e487b7160e01b600052604160045260246000fd5b600080fdfe60806040526004361015610056575b361561001957600080fd5b610025346001546126ad565b6001556040513481527f543ba50a5eec5e6178218e364b1d0f396157b3c8fa278522c2cb7fd99407d47460203392a2005b60003560e01c80630c56724e14611e955780631e79d95714611e2d5780631f2f4bfd14611de45780631f44811214611d645780632392a48514611bae5780632782085114611b615780632bb7784614611ae1578063313dab20146113cc5780633548777614611ac3578063418635c614611a5b578063501bc554146119cc5780635321c4fd146118b05780635a6040ad146117d8578063630a195b146115dd5780636497fdac146115905780636f9fb98a146115745780637e86ea1614611510578063853aff91146114135780638da5cb5b146113ea5780639b5655dc146113cc578063a87430ba14611383578063b32dd6a214611267578063b61b8f7e146111d7578063bc00720a14611035578063c1abc676146106fb578063cde315ec1461067f578063db144d0114610661578063dfefadff1461050c578063e2c41dbc1461049c578063f3cbe293146103c45763f926fe580361000e57346103bf576101be3661214c565b336000526002602052600360ff604060002054166101db81611f7d565b14806103a3575b6101eb90612444565b6006548211158061039a575b6102009061247f565b816000526003602052610229600260ff6008604060002001541661022381611f7d565b14612594565b81600052600360205261024760ff600d6040600020015416156125d5565b801561038157905b600154821161033c576000818152600360208190526040909120600180820154600c8301869055600d8301805460ff19908116841790915560089093018054909316909317909155546001600160a01b0390911692906102b0908290612573565b600155600080808084875af16102c46126ba565b50156102f75760207feb2cd132972ac2f1b1b2806265483bfbe1a6c39df51e7a855c258ecd12fd1c4491604051908152a3005b60405162461bcd60e51b815260206004820152601a60248201527f5472616e7366657220746f2073747564656e74206661696c65640000000000006044820152606490fd5b60405162461bcd60e51b815260206004820152601b60248201527f496e73756666696369656e742074726561737572792066756e647300000000006044820152606490fd5b50806000526003602052600c604060002001549061024f565b508115156101f7565b503360009081526002602052604090205460081c60ff166101e2565b600080fd5b346103bf5760203660031901126103bf576000546001600160a01b03166004356103ef338314612661565b60015491828211610457576000808084819461040b8289612573565b6001555af16104186126ba565b501561042057005b60405162461bcd60e51b815260206004820152600f60248201526e151c985b9cd9995c8819985a5b1959608a1b6044820152606490fd5b60405162461bcd60e51b815260206004820152601d60248201527f496e73756666696369656e742074726561737572792062616c616e63650000006044820152606490fd5b60003660031901126103bf576104bd60018060a01b03600054163314612661565b34156104cf57610025346001546126ad565b60405162461bcd60e51b815260206004820152601560248201527409aeae6e840c8cae0dee6d2e840e6dedaca408aa89605b1b6044820152606490fd5b346103bf5760203660031901126103bf576004356000908152600360205260409020805460018201546001600160a01b03169161054b60028201612256565b61055760038301612256565b9161056460048201612256565b9261057160058301612256565b9361057e60068401612256565b9461058b60078501612256565b600885015460ff1696600986015492600a87015494600b88015496600c89015498600d015460ff16996040519d8e809e81526020015260408d016101c090526101c08d016105d891611f3c565b8c810360608e01526105e991611f3c565b8b810360808d01526105fa91611f3c565b8a810360a08c015261060b91611f3c565b89810360c08b015261061c91611f3c565b88810360e08a015261062d91611f3c565b9561063781611f7d565b61010088015261012087015261014086015261016085015261018084015215156101a08301520390f35b346103bf5760003660031901126103bf576020600654604051908152f35b346103bf5760203660031901126103bf576004356009548110156103bf576000906009548110156106e75760099091527f6e1540171b6c0c960b71a7020d9f60077f6af931a8bbf590da0223dacf75c7af01546040516001600160a01b039091168152602090f35b634e487b7160e01b82526032600452602482fd5b346103bf5760c03660031901126103bf576004356001600160401b0381116103bf5761072b9036906004016121d5565b6024356001600160401b0381116103bf5761074a9036906004016121d5565b906044356001600160401b0381116103bf5761076a9036906004016121d5565b916064356001600160401b0381116103bf5761078a9036906004016121d5565b906084356001600160401b0381116103bf576107aa9036906004016121d5565b9060a4356001600160401b0381116103bf576107ca9036906004016121d5565b9433600052600260205260ff604060002054166107e681611f7d565b158061101a575b15610fdd576000946108006006546124fd565b9283600655600a5494604051966108168861217d565b858852602088019433865260408901948552606089019384526080890190815260a0890191825260c0890192835260e089019a8b526101008901938a85526101208a01958b87526101408b01978c89526101608c0199428b526101808d019b8c526101a08d019d8e52600052600360205260406000209b518c5560018c019060018060a01b039051166bffffffffffffffffffffffff60a01b82541617905560028b0190518051906001600160401b038211610bf85781906108d8845461221c565b601f8111610f8a575b50602090601f8311600114610f2557600092610f1a575b50508160011b916000199060031b1c19161790555b51805160038b01916001600160401b038211610bf857819061092f845461221c565b601f8111610ec7575b50602090601f8311600114610e6257600092610e57575b50508160011b916000199060031b1c19161790555b51805160048a01916001600160401b038211610bf8578190610986845461221c565b601f8111610e04575b50602090601f8311600114610d9f57600092610d94575b50508160011b916000199060031b1c19161790555b51805160058901916001600160401b038211610bf85781906109dd845461221c565b601f8111610d41575b50602090601f8311600114610cdc57600092610cd1575b50508160011b916000199060031b1c19161790555b51805160068801916001600160401b038211610bf8578190610a34845461221c565b601f8111610c7e575b50602090601f8311600114610c1957600092610c0e575b50508160011b916000199060031b1c19161790555b6007860197519788516001600160401b038111610bf857610a8a825461221c565b601f8111610bb0575b506020601f8211600114610b47578190600d9a9b600092610b3c575b50508160011b916000199060031b1c19161790555b600886019051610ad381611f7d565b610adc81611f7d565b60ff8019835416911617905551600985015551600a84015551600b83015551600c820155019051151560ff80198354169116179055336006547f394b2f46e841d2b670718e98a15dfb76853abc5a8761449c74e9cba62d901521600080a3005b015190508b80610aaf565b601f1982169a83600052816000209b60005b818110610b98575091600d9b9c91846001959410610b7f575b505050811b019055610ac4565b015160001960f88460031b161c191690558b8080610b72565b838301518e556001909d019c60209384019301610b59565b826000526020600020601f830160051c81019160208410610bee575b601f0160051c01905b818110610be25750610a93565b60008155600101610bd5565b9091508190610bcc565b634e487b7160e01b600052604160045260246000fd5b015190508b80610a54565b60008581528281209350601f198516905b818110610c665750908460019594939210610c4d575b505050811b019055610a69565b015160001960f88460031b161c191690558b8080610c40565b92936020600181928786015181550195019301610c2a565b909150836000526020600020601f840160051c81019160208510610cc7575b90601f859493920160051c01905b818110610cb85750610a3d565b60008155849350600101610cab565b9091508190610c9d565b015190508c806109fd565b60008581528281209350601f198516905b818110610d295750908460019594939210610d10575b505050811b019055610a12565b015160001960f88460031b161c191690558c8080610d03565b92936020600181928786015181550195019301610ced565b909150836000526020600020601f840160051c81019160208510610d8a575b90601f859493920160051c01905b818110610d7b57506109e6565b60008155849350600101610d6e565b9091508190610d60565b015190508d806109a6565b60008581528281209350601f198516905b818110610dec5750908460019594939210610dd3575b505050811b0190556109bb565b015160001960f88460031b161c191690558d8080610dc6565b92936020600181928786015181550195019301610db0565b909150836000526020600020601f840160051c81019160208510610e4d575b90601f859493920160051c01905b818110610e3e575061098f565b60008155849350600101610e31565b9091508190610e23565b015190508e8061094f565b60008581528281209350601f198516905b818110610eaf5750908460019594939210610e96575b505050811b019055610964565b015160001960f88460031b161c191690558e8080610e89565b92936020600181928786015181550195019301610e73565b909150836000526020600020601f840160051c81019160208510610f10575b90601f859493920160051c01905b818110610f015750610938565b60008155849350600101610ef4565b9091508190610ee6565b015190508f806108f8565b60008581528281209350601f198516905b818110610f725750908460019594939210610f59575b505050811b01905561090d565b015160001960f88460031b161c191690558f8080610f4c565b92936020600181928786015181550195019301610f36565b909150836000526020600020601f840160051c81019160208510610fd3575b90601f859493920160051c01905b818110610fc457506108e1565b60008155849350600101610fb7565b9091508190610fa9565b60405162461bcd60e51b815260206004820152601560248201527413db9b1e481cdd1d59195b9d1cc8185b1b1bddd959605a1b6044820152606490fd5b5033600052600260205260ff60406000205460081c166107ed565b346103bf5760203660031901126103bf57600435336000526002602052600260ff6040600020541661106681611f7d565b14806111bb575b61107690612444565b600654811115806111b2575b61108b9061247f565b60008181526005602090815260408083203384529091529020546110b29060ff16156124c1565b806000526003602052600160ff600860406000200154166110d281611f7d565b0361117a5760008181526005602090815260408083203384528252808320805460ff1916600117905583835260039091529020600a018054611113906124fd565b90558060005260036020526002600a604060002001541015611159575b33907ff0fa8ae53d95f7f4c33792329c9b1c907341e985451bcc9371b9e57a063e7f9e600080a3005b8060005260036020526008604060002001600260ff19825416179055611130565b60405162461bcd60e51b815260206004820152601060248201526f139bdd0814d051c81d995c9a599a595960821b6044820152606490fd5b50801515611082565b503360009081526002602052604090205460081c60ff1661106d565b346103bf5760003660031901126103bf5760405180602060095491828152019060096000527f6e1540171b6c0c960b71a7020d9f60077f6af931a8bbf590da0223dacf75c7af9060005b818110611248576112448561123881870382612199565b6040519182918261208c565b0390f35b82546001600160a01b0316845260209093019260019283019201611221565b346103bf5760003660031901126103bf5733600052600260205260ff6040600020541661129381611f7d565b158015611367575b15611313576040516112ac81612162565b60008152602081016001815233600052600260205260406000209151906112d282611f7d565b6112db82611f7d565b60ff61ff0084549251151560081b1692169061ffff191617179055604051600081526000805160206126eb83398151915260203392a2005b60405162461bcd60e51b815260206004820152602660248201527f416c72656164792072656769737465726564207769746820646966666572656e6044820152657420726f6c6560d01b6064820152608490fd5b5033600052600260205260ff60406000205460081c161561129b565b346103bf5760203660031901126103bf576001600160a01b036113a4611ef8565b166000526002602052611244604060002054604051918160ff80859460081c169116836120cf565b346103bf5760003660031901126103bf576020600154604051908152f35b346103bf5760003660031901126103bf576000546040516001600160a01b039091168152602090f35b346103bf5760003660031901126103bf57600654600060015b828111156114cb575061143e90612523565b90600060015b8281111561145a576040518061124486826120ec565b6000818152600360205260409020600101546001600160a01b0316331461148a575b611485906124fd565b611444565b906114c3611485918360005260036020526114a86040600020612366565b6114b28288612580565b526114bd8187612580565b506124fd565b91905061147c565b6000818152600360205260409020600101546001600160a01b031633146114fb575b6114f6906124fd565b61142c565b906115086114f6916124fd565b9190506114ed565b346103bf5760203660031901126103bf577f7507c210bbb9ab4aea1f74a1726a275c5d22d0ea3734a20e18b842b1dec70e9b602060043561155c60018060a01b03600054163314612661565b611567811515612615565b80600a55604051908152a1005b346103bf5760003660031901126103bf57602047604051908152f35b346103bf5760403660031901126103bf576115a9611ee2565b600435600052600460205260406000209060018060a01b0316600052602052602060ff604060002054166040519015158152f35b346103bf5760403660031901126103bf576115f6611ef8565b60243560048110156103bf5761161760018060a01b03600054163314612661565b60405161162381612162565b61162c82611f7d565b81815260208101926001845260018060a01b031692836000526002602052604060002091519061165b82611f7d565b61166482611f7d565b60ff61ff0084549251151560081b1692169061ffff19161717905561168881611f7d565b600181036116f257600754600160401b811015610bf8576000805160206126eb833981519152916116c3826001602094016007556007611f0e565b81546001600160a01b0360039290921b91821b19169086901b1790555b604051906116ed81611f7d565b8152a2005b6116fb81611f7d565b6002810361175757600854600160401b811015610bf8576000805160206126eb83398151915291611736826001602094016008556008611f0e565b81546001600160a01b0360039290921b91821b19169086901b1790556116e0565b61176081611f7d565b60038114611780575b60206000805160206126eb833981519152916116e0565b600954600160401b811015610bf8576000805160206126eb833981519152916117b3826001602094016009556009611f0e565b81546001600160a01b0360039290921b91821b19169086901b17905591506117699050565b346103bf576117e63661214c565b90336000526002602052600360ff6040600020541661180481611f7d565b1480611894575b61181490612444565b6006548111158061188b575b6118299061247f565b80600052600360205261184c600260ff6008604060002001541661022381611f7d565b80600052600360205261186a60ff600d6040600020015416156125d5565b611875821515612615565b6000526003602052600c60406000200155600080f35b50801515611820565b503360009081526002602052604090205460081c60ff1661180b565b346103bf5760203660031901126103bf5760043560048110156103bf57600654600060015b8281111561197b57506118e790612523565b9160009060015b83811115611904576040518061124487826120ec565b8060005260036020528160ff6008604060002001541661192382611f7d565b61192c81611f7d565b14611940575b61193b906124fd565b6118ee565b9161197361193b9184600052600360205261195e6040600020612366565b6119688289612580565b526114bd8188612580565b929050611932565b8060005260036020528360ff6008604060002001541661199a82611f7d565b6119a381611f7d565b146119b7575b6119b2906124fd565b6118d5565b906119c46119b2916124fd565b9190506119a9565b346103bf5760003660031901126103bf576006546119e981612523565b9060015b81811115611a03576040518061124485826120ec565b806000526003602052604060002090600019810191818311611a4557611a4092611a2f6114bd92612366565b611a398288612580565b5285612580565b6119ed565b634e487b7160e01b600052601160045260246000fd5b346103bf5760203660031901126103bf576004356007548110156103bf576000906007548110156106e75760079091527fa66cc928b5edb82af9bd49922954155ab7b0942694bea4ce44661d9a8736c68801546040516001600160a01b039091168152602090f35b346103bf5760003660031901126103bf576020600a54604051908152f35b346103bf5760003660031901126103bf5760405180602060085491828152019060086000527ff3f7a9fe364faab93b216da50a3214154f22a0a2b415b23a84c8169e8b636ee39060005b818110611b42576112448561123881870382612199565b82546001600160a01b0316845260209093019260019283019201611b2b565b346103bf5760203660031901126103bf576001600160a01b03611b82611ef8565b16600090815260026020526040908190205490519081906112449060ff600882901c81169116836120cf565b346103bf5760203660031901126103bf57600435336000526002602052600160ff60406000205416611bdf81611f7d565b1480611d48575b611bef90612444565b60065481111580611d3f575b611c049061247f565b6000818152600460209081526040808320338452909152902054611c2b9060ff16156124c1565b80600052600360205260ff60086040600020015416611c4981611f7d565b611cf05760008181526004602090815260408083203384528252808320805460ff19166001179055838352600390915290206009018054611c89906124fd565b905580600052600360205260016009604060002001541015611ccf575b33907f47398651a1ebdf4ea3733cefbc8d191485209e7fbcdbc8454566ecf82b3d4afc600080a3005b8060005260036020526008604060002001600160ff19825416179055611ca6565b60405162461bcd60e51b815260206004820152602160248201527f4170706c69636174696f6e206e6f7420696e206170706c6965642073746174756044820152607360f81b6064820152608490fd5b50801515611bfb565b503360009081526002602052604090205460081c60ff16611be6565b346103bf5760003660031901126103bf5760405180602060075491828152019060076000527fa66cc928b5edb82af9bd49922954155ab7b0942694bea4ce44661d9a8736c6889060005b818110611dc5576112448561123881870382612199565b82546001600160a01b0316845260209093019260019283019201611dae565b346103bf5760203660031901126103bf57611dfd6122fa565b506004356000526003602052611244611e196040600020612366565b604051918291602083526020830190611f9d565b346103bf5760203660031901126103bf576004356008548110156103bf576000906008548110156106e75760089091527ff3f7a9fe364faab93b216da50a3214154f22a0a2b415b23a84c8169e8b636ee301546040516001600160a01b039091168152602090f35b346103bf5760403660031901126103bf57611eae611ee2565b600435600052600560205260406000209060018060a01b0316600052602052602060ff604060002054166040519015158152f35b602435906001600160a01b03821682036103bf57565b600435906001600160a01b03821682036103bf57565b8054821015611f265760005260206000200190600090565b634e487b7160e01b600052603260045260246000fd5b919082519283825260005b848110611f68575050826000602080949584010152601f8019910116010190565b80602080928401015182828601015201611f47565b60041115611f8757565b634e487b7160e01b600052602160045260246000fd5b908151815260018060a01b0360208301511660208201526101a08061203c61202a612018612006611ff4611fe260408a01516101c060408b01526101c08a0190611f3c565b60608a015189820360608b0152611f3c565b608089015188820360808a0152611f3c565b60a088015187820360a0890152611f3c565b60c087015186820360c0880152611f3c565b60e086015185820360e0870152611f3c565b9361010081015161204c81611f7d565b6101008501526101208101516101208501526101408101516101408501526101608101516101608501526101808101516101808501520151151591015290565b602060408183019282815284518094520192019060005b8181106120b05750505090565b82516001600160a01b03168452602093840193909201916001016120a3565b90929160209060408301946120e381611f7d565b83521515910152565b602081016020825282518091526040820191602060408360051b8301019401926000915b83831061211f57505050505090565b909192939460208061213d600193603f198682030187528951611f9d565b97019301930191939290612110565b60409060031901126103bf576004359060243590565b604081019081106001600160401b03821117610bf857604052565b6101c081019081106001600160401b03821117610bf857604052565b90601f801991011681019081106001600160401b03821117610bf857604052565b6001600160401b038111610bf857601f01601f191660200190565b81601f820112156103bf578035906121ec826121ba565b926121fa6040519485612199565b828452602083830101116103bf57816000926020809301838601378301015290565b90600182811c9216801561224c575b602083101461223657565b634e487b7160e01b600052602260045260246000fd5b91607f169161222b565b906040519182600082549261226a8461221c565b80845293600181169081156122d85750600114612291575b5061228f92500383612199565b565b90506000929192526020600020906000915b8183106122bc57505090602061228f9282010138612282565b60209193508060019154838589010152019101909184926122a3565b90506020925061228f94915060ff191682840152151560051b82010138612282565b604051906123078261217d565b60006101a0838281528260208201526060604082015260608082015260606080820152606060a0820152606060c0820152606060e082015282610100820152826101208201528261014082015282610160820152826101808201520152565b906040516123738161217d565b6101a060ff600d83958054855260018060a01b03600182015416602086015261239e60028201612256565b60408601526123af60038201612256565b60608601526123c060048201612256565b60808601526123d160058201612256565b60a08601526123e260068201612256565b60c08601526123f360078201612256565b60e08601528260088201541661240881611f7d565b6101008601526009810154610120860152600a810154610140860152600b810154610160860152600c8101546101808601520154161515910152565b1561244b57565b60405162461bcd60e51b815260206004820152600c60248201526b155b985d5d1a1bdc9a5e995960a21b6044820152606490fd5b1561248657565b60405162461bcd60e51b815260206004820152601360248201527224b73b30b634b21030b8383634b1b0ba34b7b760691b6044820152606490fd5b156124c857565b60405162461bcd60e51b815260206004820152600d60248201526c105b1c9958591e481d9bdd1959609a1b6044820152606490fd5b6000198114611a455760010190565b6001600160401b038111610bf85760051b60200190565b9061252d8261250c565b61253a6040519182612199565b828152809261254b601f199161250c565b019060005b82811061255c57505050565b6020906125676122fa565b82828501015201612550565b91908203918211611a4557565b8051821015611f265760209160051b010190565b1561259b57565b60405162461bcd60e51b8152602060048201526012602482015271139bdd0818591b5a5b88185c1c1c9bdd995960721b6044820152606490fd5b156125dc57565b60405162461bcd60e51b8152602060048201526011602482015270105b1c9958591e48191a5cd89d5c9cd959607a1b6044820152606490fd5b1561261c57565b60405162461bcd60e51b815260206004820152601d60248201527f416d6f756e74206d7573742062652067726561746572207468616e20300000006044820152606490fd5b1561266857565b60405162461bcd60e51b815260206004820152601860248201527f4f6e6c79206f776e65722063616e2063616c6c207468697300000000000000006044820152606490fd5b91908201809211611a4557565b3d156126e5573d906126cb826121ba565b916126d96040519384612199565b82523d6000602084013e565b60609056fe73dac2552c7f6613fbf8503e9838d639ff54bcd7e99524dd8600321b2fb6d77ca264697066735822122026fbdc781dc5aed01e6f5cf679c6d09a93c286ef273db1c3429864f7480e230464736f6c634300081c0033",
  "linkReferences": {},
  "deployedLinkReferences": {}
}